:100000000C943F000C9400000C9400000C94000031
:100010000C9400000C9400000C9400000C94000060
:100020000C9400000C9400000C9400000C94000050
:100030000C9400000C9400000C9400000C94000040
:100040000C9400000C9400000C9400000C94000030
:100050000C9400001E002800320000000000A406DE
:100060005203F4010A0004005400020060015E0023
:100070000200640160000200680162000000F89460
:10008000EE27ECBBF1E0FBBFEBBFE5BF8DE0A2E0EC
:10009000BB27ED938A95E9F780E094E0A0E6ED9325
:1000A0000197E9F7E4E6F0E085919591009761F01A
:1000B000A591B59105901590BF01F00105900D92A5
:1000C0000197E1F7FB01F0CFEFE5EDBFE4E0EEBF14
:1000D000C0E6D1E00C942901AA93E881E7B983E056
:1000E0008A95F1F7369A349BFECF349AE4B1F5B194
:1000F00021960895919B02C0919801C0919AA09178
:100100006001B091610118C0919B02C0919801C03B
:10011000919AA0916401B09165010EC0909B02C0BC
:10012000909801C0909A919B02C0919801C0919AB9
:10013000A0916801B09169010E947401089590989E
:100140009198089566D0D198D99A889A889AD09A29
:10015000229769D0E883F983C99B25C0AAD027D00C
:10016000309731F0E1E0F0E06F014AD0D7DF1AC0FC
:10017000A0D023D0309749F00C2C0D2819F0CEDFF9
:100180003FD002C046D0C0DF0DC093D023D03097FF
:1001900029F0CC24DD243DD0ADDF04C0CC24DD2407
:1001A000CEDF37D002C0CBDF34D02296D1CF0E9431
:1001B000990288D00E94770220C00E949902D30140
:1001C00089D030F47FD00E94570210F4E1E001C0E2
:1001D000E0E013C00E949902D2017CD068F4F301E0
:1001E00032970E9494020E9485020E94E4010E94BC
:1001F000570210F4E1E001C0E0E0F0E02496089539
:100200000A2C0B2829F4ECE0E5BBE1E0F0E05F010B
:100210000895E1E0F0E0EA15FB0521F4EAE0E5BB32
:10022000AA24BB2408951A930A93A0E055DF8F01F6
:100230000E9485020E94E401DF01CB01ECEBF4E7B0
:1002400063E070E40E9412020E94AD0109911991CD
:100250000895E0E0EABBE2E0EBBBE0E0E7BBE8BB2F
:10026000EFE0E4BBE0E0E5BBE3E0E1BBE0E0E2BB04
:10027000E3BFE2BFECBFEFBDEEBDEDBDECBDE7BD42
:10028000E6BDEBBDEABDE9BDE8BDE2BDE5BDE4BD4F
:10029000E3BDE9BFE5BFE4BFEAB9E0E8E8B9E0E003
:1002A000E7B9E1E8E6B9E0E0E0BFEDB9E6BF4ADF73
:1002B000FFCFE881F9810E9485020E94E401DF01FD
:1002C000CB010895F4010E9494020E9485020E94CD
:1002D000E401089512970E948F020E948A020E94F0
:1002E000A0020E9457020895109639F08AEF90E01C
:1002F0000197F1F7A8951197C9F70895552342F48E
:10030000503811F4E0FF04C03196691F791F6BF07B
:1003100050E8572711F45F9373C05F3F31F0660FC9
:10032000000C57956795752F08955F9300200AF08C
:1003300073C06CC050E8192E1522880F991F95279D
:10034000550F879550E8072E0522660F771F7527F2
:10035000550F67950895689401C0E8945F93F2DFA4
:10036000703818F07F3F08F44BC056E1571BAAF4D1
:10037000519558300EF4593030F0EFEFFFEF6FEF3A
:100380007FE777F91AC077275523B9F0EE0FFF1FE3
:10039000661F771F5A95D1F710C07727583028F07D
:1003A000EF2FF62F672F5850F9CF552331F0769560
:1003B0006795F795E7955A95D1F700200AF49DD0F7
:1003C0005F910895689401C0E89430976040704050
:1003D000B1F0002426F0772312F400948ED0172E6B
:1003E0007EE1112032F07A95EE0FFF1F661F111C7F
:1003F000F9CFEF2FF62F612D5F938ADF5F9108957C
:10040000EE27FF27662777275F910895EFEFFFEF2D
:100410006FE77FEF5F910895EFEFFFEF6FE77FE703
:100420005F9108955F9386DF703821F411200AF4FC
:10043000EDCFF2CF903809F4E3CF01240894970B65
:100440001BF4D4F30020F3CF792F1F932F933F9306
:100450004F9311241127222733274427552790E251
:10046000AE17BF078607410730F0AE1BBF0B860BE8
:10047000410B089401C08894551F221F331F111C83
:10048000AA1FBB1F881F441F9A9551F7F901612DC0
:100490004F913F912F911F91662332F0550FEE1F20
:1004A000FF1F661F7A9543F229DF5F910895992314
:1004B0009AF0772342F0971748F029F4AE17BF0758
:1004C000860720F031F098948894089598940894C1
:1004D00008951894889408957723C2F7971798F38E
:1004E000A9F7EA17FB07680788F399F3ECCFDFDF7A
:1004F000E1E011F008F4EE270895F095609570950D
:10050000E195FF4F6F4F7F4F08956F2F660F660B7A
:10051000762F08958B2F880F880B982F0895E881E8
:10052000F9816A817B810895A881B9818A819B8143
:1005300008959A938A93BA93AA930895689401C0F0
:10054000E89401D042DF182E862F612D192E972FA7
:10055000712D1B2EBF2FF12D1A2EAE2FE12D0895D8
:00000001FF
